{"_format":"hh-sol-artifact-1","contractName":"Escrow","sourceName":"contracts/escrow.sol","abi":[{"inputs":[{"internalType":"address","name":"_nftAddress","type":"address"},{"internalType":"address payable","name":"_inspector","type":"address"}],"stateMutability":"nonpayable","type":"constructor"},{"inputs":[{"internalType":"address","name":"a","type":"address"}],"name":"balance","outputs":[{"internalType":"uint256","name":"","type":"uint256"}],"stateMutability":"view","type":"function"},{"inputs":[],"name":"inspector","outputs":[{"internalType":"address payable","name":"","type":"address"}],"stateMutability":"view","type":"function"},{"inputs":[{"internalType":"uint256","name":"","type":"uint256"}],"name":"items","outputs":[{"internalType":"address payable","name":"owner","type":"address"},{"internalType":"uint256","name":"price","type":"uint256"},{"internalType":"bool","name":"sold","type":"bool"},{"internalType":"uint256","name":"itemId","type":"uint256"},{"internalType":"address payable","name":"moneyaddress","type":"address"}],"stateMutability":"view","type":"function"},{"inputs":[{"internalType":"uint256","name":"_nftId","type":"uint256"},{"internalType":"uint256","name":"_price","type":"uint256"}],"name":"makeItem","outputs":[],"stateMutability":"payable","type":"function"},{"inputs":[],"name":"nftAddress","outputs":[{"internalType":"address","name":"","type":"address"}],"stateMutability":"view","type":"function"},{"inputs":[{"internalType":"uint256","name":"_itemId","type":"uint256"}],"name":"purchaseItem","outputs":[],"stateMutability":"payable","type":"function"},{"inputs":[{"internalType":"uint256","name":"_itemId","type":"uint256"},{"internalType":"uint256","name":"_price","type":"uint256"}],"name":"sellItem","outputs":[],"stateMutability":"nonpayable","type":"function"}],"bytecode":"0x60806040523480156200001157600080fd5b5060405162000fb638038062000fb683398181016040528101906200003791906200016f565b806000806101000a81548173ffffffffffffffffffffffffffffffffffffffff021916908373ffffffffffffffffffffffffffffffffffffffff16021790555081600160006101000a81548173ffffffffffffffffffffffffffffffffffffffff021916908373ffffffffffffffffffffffffffffffffffffffff1602179055505050620001b6565b600080fd5b600073ffffffffffffffffffffffffffffffffffffffff82169050919050565b6000620000f282620000c5565b9050919050565b6200010481620000e5565b81146200011057600080fd5b50565b6000815190506200012481620000f9565b92915050565b60006200013782620000c5565b9050919050565b62000149816200012a565b81146200015557600080fd5b50565b60008151905062000169816200013e565b92915050565b60008060408385031215620001895762000188620000c0565b5b6000620001998582860162000113565b9250506020620001ac8582860162000158565b9150509250929050565b610df080620001c66000396000f3fe6080604052600436106100705760003560e01c8063bfb231d21161004e578063bfb231d2146100e5578063d38ea5bf14610126578063e3d670d714610142578063ed2cee9e1461017f57610070565b80630a50e3be146100755780632d923561146100915780635bf8633a146100ba575b600080fd5b61008f600480360381019061008a919061090a565b6101aa565b005b34801561009d57600080fd5b506100b860048036038101906100b3919061090a565b6103d0565b005b3480156100c657600080fd5b506100cf610566565b6040516100dc919061098b565b60405180910390f35b3480156100f157600080fd5b5061010c600480360381019061010791906109a6565b61058c565b60405161011d959493929190610a1e565b60405180910390f35b610140600480360381019061013b91906109a6565b61060f565b005b34801561014e57600080fd5b5061016960048036038101906101649190610a9d565b61088a565b6040516101769190610aca565b60405180910390f35b34801561018b57600080fd5b506101946108ab565b6040516101a19190610ae5565b60405180910390f35b600081116101ed576040517f08c379a00000000000000000000000000000000000000000000000000000000081526004016101e490610b83565b60405180910390fd5b600160009054906101000a900473ffffffffffffffffffffffffffffffffffffffff1673ffffffffffffffffffffffffffffffffffffffff166323b872dd3330856040518463ffffffff1660e01b815260040161024c93929190610ba3565b600060405180830381600087803b15801561026657600080fd5b505af115801561027a573d6000803e3d6000fd5b505050506040518060a001604052803073ffffffffffffffffffffffffffffffffffffffff16815260200182815260200160001515815260200183815260200160008054906101000a900473ffffffffffffffffffffffffffffffffffffffff1673ffffffffffffffffffffffffffffffffffffffff168152506002600084815260200190815260200160002060008201518160000160006101000a81548173ffffffffffffffffffffffffffffffffffffffff021916908373ffffffffffffffffffffffffffffffffffffffff1602179055506020820151816001015560408201518160020160006101000a81548160ff0219169083151502179055506060820151816003015560808201518160040160006101000a81548173ffffffffffffffffffffffffffffffffffffffff021916908373ffffffffffffffffffffffffffffffffffffffff1602179055509050505050565b60006002600084815260200190815260200160002090508060000160009054906101000a900473ffffffffffffffffffffffffffffffffffffffff1673ffffffffffffffffffffffffffffffffffffffff163373ffffffffffffffffffffffffffffffffffffffff161461044357600080fd5b600160009054906101000a900473ffffffffffffffffffffffffffffffffffffffff1673ffffffffffffffffffffffffffffffffffffffff166323b872dd8260000160009054906101000a900473ffffffffffffffffffffffffffffffffffffffff1630866040518463ffffffff1660e01b81526004016104c693929190610c39565b600060405180830381600087803b1580156104e057600080fd5b505af11580156104f4573d6000803e3d6000fd5b50505050308160000160006101000a81548173ffffffffffffffffffffffffffffffffffffffff021916908373ffffffffffffffffffffffffffffffffffffffff16021790555081816001018190555060008160020160006101000a81548160ff021916908315150217905550505050565b600160009054906101000a900473ffffffffffffffffffffffffffffffffffffffff1681565b60026020528060005260406000206000915090508060000160009054906101000a900473ffffffffffffffffffffffffffffffffffffffff16908060010154908060020160009054906101000a900460ff16908060030154908060040160009054906101000a900473ffffffffffffffffffffffffffffffffffffffff16905085565b6000600260008381526020019081526020016000209050806001015434101561066d576040517f08c379a000000000000000000000000000000000000000000000000000000000815260040161066490610d08565b60405180910390fd5b8060020160009054906101000a900460ff16156106bf576040517f08c379a00000000000000000000000000000000000000000000000000000000081526004016106b690610d9a565b60405180910390fd5b600160009054906101000a900473ffffffffffffffffffffffffffffffffffffffff1673ffffffffffffffffffffffffffffffffffffffff166323b872dd8260000160009054906101000a900473ffffffffffffffffffffffffffffffffffffffff1633856040518463ffffffff1660e01b815260040161074293929190610c39565b600060405180830381600087803b15801561075c57600080fd5b505af1158015610770573d6000803e3d6000fd5b50505050338160000160006101000a81548173ffffffffffffffffffffffffffffffffffffffff021916908373ffffffffffffffffffffffffffffffffffffffff16021790555060018160020160006101000a81548160ff0219169083151502179055508060040160009054906101000a900473ffffffffffffffffffffffffffffffffffffffff1673ffffffffffffffffffffffffffffffffffffffff166108fc82600101549081150290604051600060405180830381858888f19350505050158015610842573d6000803e3d6000fd5b50338160040160006101000a81548173ffffffffffffffffffffffffffffffffffffffff021916908373ffffffffffffffffffffffffffffffffffffffff1602179055505050565b60008173ffffffffffffffffffffffffffffffffffffffff16319050919050565b60008054906101000a900473ffffffffffffffffffffffffffffffffffffffff1681565b600080fd5b6000819050919050565b6108e7816108d4565b81146108f257600080fd5b50565b600081359050610904816108de565b92915050565b60008060408385031215610921576109206108cf565b5b600061092f858286016108f5565b9250506020610940858286016108f5565b9150509250929050565b600073ffffffffffffffffffffffffffffffffffffffff82169050919050565b60006109758261094a565b9050919050565b6109858161096a565b82525050565b60006020820190506109a0600083018461097c565b92915050565b6000602082840312156109bc576109bb6108cf565b5b60006109ca848285016108f5565b91505092915050565b60006109de8261094a565b9050919050565b6109ee816109d3565b82525050565b6109fd816108d4565b82525050565b60008115159050919050565b610a1881610a03565b82525050565b600060a082019050610a3360008301886109e5565b610a4060208301876109f4565b610a4d6040830186610a0f565b610a5a60608301856109f4565b610a6760808301846109e5565b9695505050505050565b610a7a8161096a565b8114610a8557600080fd5b50565b600081359050610a9781610a71565b92915050565b600060208284031215610ab357610ab26108cf565b5b6000610ac184828501610a88565b91505092915050565b6000602082019050610adf60008301846109f4565b92915050565b6000602082019050610afa60008301846109e5565b92915050565b600082825260208201905092915050565b7f5468652070726963652073686f756c642062652067726561746572207468616e60008201527f207a65726f000000000000000000000000000000000000000000000000000000602082015250565b6000610b6d602583610b00565b9150610b7882610b11565b604082019050919050565b60006020820190508181036000830152610b9c81610b60565b9050919050565b6000606082019050610bb8600083018661097c565b610bc5602083018561097c565b610bd260408301846109f4565b949350505050565b6000819050919050565b6000610bff610bfa610bf58461094a565b610bda565b61094a565b9050919050565b6000610c1182610be4565b9050919050565b6000610c2382610c06565b9050919050565b610c3381610c18565b82525050565b6000606082019050610c4e6000830186610c2a565b610c5b602083018561097c565b610c6860408301846109f4565b949350505050565b7f546865206d6573736167652076616c75652073686f756c64206265206772656160008201527f746572207468616e206f7220657175616c20746f20746865206974656d20707260208201527f6963650000000000000000000000000000000000000000000000000000000000604082015250565b6000610cf2604383610b00565b9150610cfd82610c70565b606082019050919050565b60006020820190508181036000830152610d2181610ce5565b9050919050565b7f546865206974656d2073686f756c6420626520617661696c61626c6520746f2060008201527f7075726368617365000000000000000000000000000000000000000000000000602082015250565b6000610d84602883610b00565b9150610d8f82610d28565b604082019050919050565b60006020820190508181036000830152610db381610d77565b905091905056fea2646970667358221220b8a1bf9dd9f3d97e44a1e7fb12c92251df983908785f4d0cc4b11f7177c9c33c64736f6c63430008140033","linkReferences":{},"deployedLinkReferences":{}}